{
  "transactions": [
    {
      "hash": "0x641bea3e5fa299d187d518532dbf60d824de4cd91d0c6489aa5bcfa46786312f",
      "transactionType": "CALL",
      "contractName": null,
      "contractAddress": "0x2b5124f88a21c291f4d26354a81db5680045d4de",
      "function": "setAuthority(address)",
      "arguments": [
        "0x2B5124f88a21C291F4d26354a81DB5680045d4dE"
      ],
      "transaction": {
        "from": "0x53118050cc8fc8c6925cdc842b1784dcba9a4ba9",
        "to": "0x2b5124f88a21c291f4d26354a81db5680045d4de",
        "gas": "0xf12c",
        "value": "0x0",
        "input": "0x7a9e5e4b0000000000000000000000002b5124f88a21c291f4d26354a81db5680045d4de",
        "nonce": "0xe0",
        "chainId": "0x14a34"
      },
      "additionalContracts": [],
      "isFixedGasLimit": false
    },
    {
      "hash": "0xc744dda36cbb9c9aefbe643ca2611f9129331e5039a8251a33b7321486c7908f",
      "transactionType": "CALL",
      "contractName": null,
      "contractAddress": "0x2b5124f88a21c291f4d26354a81db5680045d4de",
      "function": "setRootUser(address,bool)",
      "arguments": [
        "0x53118050CC8fC8C6925CdC842b1784dcBa9A4ba9",
        "true"
      ],
      "transaction": {
        "from": "0x53118050cc8fc8c6925cdc842b1784dcba9a4ba9",
        "to": "0x2b5124f88a21c291f4d26354a81db5680045d4de",
        "gas": "0x8c76",
        "value": "0x0",
        "input": "0xd381ba7c00000000000000000000000053118050cc8fc8c6925cdc842b1784dcba9a4ba90000000000000000000000000000000000000000000000000000000000000001",
        "nonce": "0xe1",
        "chainId": "0x14a34"
      },
      "additionalContracts": [],
      "isFixedGasLimit": false
    },
    {
      "hash": "0x6a2e99f009f8c7a0b7c51850a13494cef337f9fbac5e7e9a984d28d635c7b9c4",
      "transactionType": "CREATE",
      "contractName": "TokenActions",
      "contractAddress": "0x77f9568d874290bcb397f5bede112a203e81eacf",
      "function": null,
      "arguments": null,
      "transaction": {
        "from": "0x53118050cc8fc8c6925cdc842b1784dcba9a4ba9",
        "gas": "0x5390a",
        "value": "0x0",
        "input": "0x608060405234801561001057600080fd5b506103cd806100206000396000f3fe608060405234801561001057600080fd5b506004361061004c5760003560e01c80631aaa3d9814610051578063ad28ff8814610066578063c6c3bbe614610079578063f6b911bc146100a2575b600080fd5b61006461005f36600461027f565b6100b5565b005b61006461007436600461027f565b610117565b61008c6100873660046102b3565b610143565b604051610099919061036b565b60405180910390f35b61008c6100b03660046102b3565b6101b0565b604051630d44a93360e11b81526001600160a01b03831690631a895266906100e190849060040161031a565b600060405180830381600087803b1580156100fb57600080fd5b505af115801561010f573d6000803e3d6000fd5b505050505050565b604051633e7e4af960e21b81526001600160a01b0383169063f9f92be4906100e190849060040161031a565b6040516340c10f1960e01b81526000906001600160a01b038516906340c10f19906101749086908690600401610352565b600060405180830381600087803b15801561018e57600080fd5b505af11580156101a2573d6000803e3d6000fd5b506001979650505050505050565b6040516323b872dd60e01b81526000906001600160a01b038516906323b872dd906101e39086903090879060040161032e565b602060405180830381600087803b1580156101fd57600080fd5b505af1158015610211573d6000803e3d6000fd5b505050506040513d601f19601f8201168201806040525081019061023591906102f3565b50604051630852cd8d60e31b81526001600160a01b038516906342966c6890610174908590600401610376565b80356001600160a01b038116811461027957600080fd5b92915050565b60008060408385031215610291578182fd5b61029b8484610262565b91506102aa8460208501610262565b90509250929050565b6000806000606084860312156102c7578081fd5b83356102d28161037f565b925060208401356102e28161037f565b929592945050506040919091013590565b600060208284031215610304578081fd5b81518015158114610313578182fd5b9392505050565b6001600160a01b0391909116815260200190565b6001600160a01b039384168152919092166020820152604081019190915260600190565b6001600160a01b03929092168252602082015260400190565b901515815260200190565b90815260200190565b6001600160a01b038116811461039457600080fd5b5056fea264697066735822122046b88643db107e50fc38ff181a10ef4f85ec03542d0aee42a9c2301fb53b1dd364736f6c634300060c0033",
        "nonce": "0xe2",
        "chainId": "0x14a34"
      },
      "additionalContracts": [],
      "isFixedGasLimit": false
    },
    {
      "hash": "0xd559a2116bb8f2afbcc7c6f7c1d297b4771297f6530ec8f6289419854aa57167",
      "transactionType": "CREATE",
      "contractName": "PHTTokenHelper",
      "contractAddress": "0x555a24b13dcc5b872bb9a3300e2e3282b02f1daa",
      "function": null,
      "arguments": [
        "0xAb77a941193FC6D3BcE5851D0FbBb988D046b03C",
        "0x77F9568D874290Bcb397f5beDE112A203E81eaCF",
        "0x5c5cEd1a206aEAF1A70e53739f558205a034fc73"
      ],
      "transaction": {
        "from": "0x53118050cc8fc8c6925cdc842b1784dcba9a4ba9",
        "gas": "0x1a1008",
        "value": "0x0",
        "input": "0x60806040523480156200001157600080fd5b5060405162001764380380620017648339810160408190526200003491620001cc565b600180546001600160a01b031916339081179091556040517fce241d7ca1f669fee44b6fc00b8eba2df3bb514eed0f6f668f8f89096e81ed9490600090a26001600160a01b038116620000a45760405162461bcd60e51b81526004016200009b9062000256565b60405180910390fd5b6001600160a01b038316620000cd5760405162461bcd60e51b81526004016200009b906200021f565b600480546001600160a01b038084166001600160a01b03199283161783556003805486831690841617905560028054878316931692909217918290556040805163bf7e214f60e01b81529051929091169263bf7e214f928282019260209290829003018186803b1580156200014157600080fd5b505afa15801562000156573d6000803e3d6000fd5b505050506040513d601f19601f820116820180604052508101906200017c9190620001a6565b600080546001600160a01b0319166001600160a01b039290921691909117905550620002b3915050565b600060208284031215620001b8578081fd5b8151620001c5816200029a565b9392505050565b600080600060608486031215620001e1578182fd5b8351620001ee816200029a565b602085015190935062000201816200029a565b604085015190925062000214816200029a565b809150509250925092565b6020808252601c908201527f504854546f6b656e48656c7065722f70617573652d6e6f742d73657400000000604082015260600190565b60208082526024908201527f504854546f6b656e48656c7065722f746f6b656e2d666163746f72792d6e6f746040820152630b5cd95d60e21b606082015260800190565b6001600160a01b0381168114620002b057600080fd5b50565b6114a180620002c36000396000f3fe608060405234801561001057600080fd5b50600436106100f55760003560e01c8063ad28ff8811610097578063e486033911610066578063e4860339146101e3578063e5df8b8414610203578063e77772fe14610216578063f6b911bc1461021e576100f5565b8063ad28ff8814610185578063bf7e214f14610198578063c6c3bbe6146101a0578063cfbfd839146101c1576100f5565b80637a9e5e4b116100d35780637a9e5e4b1461014d5780638456cb59146101605780638da5cb5b1461017557806398ce5b4c1461017d576100f5565b806313af4035146100fa5780631aaa3d981461010f5780632f796f5014610138575b600080fd5b61010d610108366004610e13565b610231565b005b61012261011d366004610e4b565b6102bc565b60405161012f919061127c565b60405180910390f35b610140610510565b60405161012f91906113cf565b61010d61015b366004610e13565b61059d565b61016861061b565b60405161012f9190611174565b61016861062a565b610168610639565b610122610193366004610e4b565b610648565b6101686106b3565b6101b36101ae366004610efd565b6106c2565b60405161012f92919061128f565b6101d46101cf366004610fd0565b610931565b60405161012f939291906111a2565b6101f66101f1366004610e13565b610ae7565b60405161012f91906112b3565b6101686102113660046110c1565b610b85565b610168610c0d565b6101b361022c366004610efd565b610c1c565b610247336000356001600160e01b031916610c8b565b61026c5760405162461bcd60e51b81526004016102639061124e565b60405180910390fd5b600180546001600160a01b0319166001600160a01b0383811691909117918290556040519116907fce241d7ca1f669fee44b6fc00b8eba2df3bb514eed0f6f668f8f89096e81ed9490600090a250565b6102c4610d67565b6102da336000356001600160e01b031916610c8b565b6102f65760405162461bcd60e51b81526004016102639061124e565b6003546040516001600160a01b0390911690813f9060609063035547b360e31b906103279088908890602401611188565b60408051601f19818403018152918152602080830180516001600160e01b03166001600160e01b0319909516949094179093526002548151630d48571f60e31b815291519294506000936001600160a01b0390911692636a42b8f8926004808201939291829003018186803b15801561039f57600080fd5b505afa1580156103b3573d6000803e3d6000fd5b505050506040513d601f19601f820116820180604052508101906103d791906110d9565b6002546040516346d2fbbb60e01b8152919250428301916001600160a01b03909116906346d2fbbb90610414908890889088908790600401611216565b600060405180830381600087803b15801561042e57600080fd5b505af1158015610442573d6000803e3d6000fd5b5050505081600014156104dd5760025460405163168ccd6760e01b81526001600160a01b039091169063168ccd6790610485908890889088908790600401611216565b600060405180830381600087803b15801561049f57600080fd5b505af11580156104b3573d6000803e3d6000fd5b505050506040513d6000823e601f3d908101601f191682016040526104db9190810190610f5d565b505b604080516080810182526001600160a01b0390961686526020860194909452928401929092526060830152509392505050565b6000600460009054906101000a90046001600160a01b03166001600160a01b0316632f796f506040518163ffffffff1660e01b815260040160206040518083038186803b15801561056057600080fd5b505afa158015610574573d6000803e3d6000fd5b505050506040513d601f19601f8201168201806040525081019061059891906110d9565b905090565b6105b3336000356001600160e01b031916610c8b565b6105cf5760405162461bcd60e51b81526004016102639061124e565b600080546001600160a01b0319166001600160a01b03838116919091178083556040519116917f1abebea81bfa2637f28358c371278fb15ede7ea8dd28d2e03b112ff6d936ada491a250565b6002546001600160a01b031681565b6001546001600160a01b031681565b6003546001600160a01b031681565b610650610d67565b610666336000356001600160e01b031916610c8b565b6106825760405162461bcd60e51b81526004016102639061124e565b6003546040516001600160a01b0390911690813f906060906315a51ff160e31b906103279088908890602401611188565b6000546001600160a01b031681565b6106ca610d67565b60006106e2336000356001600160e01b031916610c8b565b6106fe5760405162461bcd60e51b81526004016102639061124e565b6003546040516001600160a01b0390911690813f90606090636361ddf360e11b90610731908a908a908a906024016111f2565b60408051601f19818403018152918152602080830180516001600160e01b03166001600160e01b0319909516949094179093526002548151630d48571f60e31b815291519294506000936001600160a01b0390911692636a42b8f8926004808201939291829003018186803b1580156107a957600080fd5b505afa1580156107bd573d6000803e3d6000fd5b505050506040513d601f19601f820116820180604052508101906107e191906110d9565b6002546040516346d2fbbb60e01b8152919250428301916001600160a01b03909116906346d2fbbb9061081e908890889088908790600401611216565b600060405180830381600087803b15801561083857600080fd5b505af115801561084c573d6000803e3d6000fd5b5050505081600014156108fb5760025460405163168ccd6760e01b81526001600160a01b039091169063168ccd679061088f908890889088908790600401611216565b600060405180830381600087803b1580156108a957600080fd5b505af11580156108bd573d6000803e3d6000fd5b505050506040513d6000823e601f3d908101601f191682016040526108e59190810190610f5d565b8060200190518101906108f89190610f3d565b95505b604080516080810182526001600160a01b0390961686526020860194909452928401929092526060830152509590945092505050565b600080600061094c336000356001600160e01b031916610c8b565b6109685760405162461bcd60e51b81526004016102639061124e565b6002546040805163ec55688960e01b815290516000926001600160a01b03169163ec556889916004808301926020929190829003018186803b1580156109ad57600080fd5b505afa1580156109c1573d6000803e3d6000fd5b505050506040513d601f19601f820116820180604052508101906109e59190610e2f565b600480546040805161016081018252895181526020808b0151908201528982015160ff16818301526060808b0151908201526080808b01519082015260a0808b01516001600160a01b039081169183019190915280861660c08084018290528c0151821660e08401526101008301819052610120830181905261014083015291516337bb18fd60e01b81529495509116926337bb18fd92610a879291016112d6565b606060405180830381600087803b158015610aa157600080fd5b505af1158015610ab5573d6000803e3d6000fd5b505050506040513d601f19601f82011682018060405250810190610ad99190610eb1565b919790965090945092505050565b610aef610d8d565b6004805460405163e486033960e01b81526001600160a01b039091169163e486033991610b1e91869101611174565b604080518083038186803b158015610b3557600080fd5b505afa158015610b49573d6000803e3d6000fd5b505050506040513d601f19601f82011682018060405250810190610b6d9190610e83565b6001600160a01b039081166020840152168152919050565b60048054604051633977e2e160e21b81526000926001600160a01b039092169163e5df8b8491610bb7918691016113cf565b60206040518083038186803b158015610bcf57600080fd5b505afa158015610be3573d6000803e3d6000fd5b505050506040513d601f19601f82011682018060405250810190610c079190610e2f565b92915050565b6004546001600160a01b031681565b610c24610d67565b6000610c3c336000356001600160e01b031916610c8b565b610c585760405162461bcd60e51b81526004016102639061124e565b6003546040516001600160a01b0390911690813f90606090633dae446f60e21b90610731908a908a908a906024016111f2565b60006001600160a01b038316301415610ca657506001610c07565b6001546001600160a01b0384811691161415610cc457506001610c07565b6000546001600160a01b0316610cdc57506000610c07565b60005460405163b700961360e01b81526001600160a01b039091169063b700961390610d10908690309087906004016111c5565b60206040518083038186803b158015610d2857600080fd5b505afa158015610d3c573d6000803e3d6000fd5b505050506040513d601f19601f82011682018060405250810190610d609190610f3d565b9392505050565b604080516080810182526000808252602082018190529181019190915260608082015290565b604080518082019091526000808252602082015290565b8035610c0781611453565b600082601f830112610dbf578081fd5b8135610dd2610dcd826113ff565b6113d8565b9150808252836020828501011115610de957600080fd5b8060208401602084013760009082016020015292915050565b803560ff81168114610c0757600080fd5b600060208284031215610e24578081fd5b8135610d6081611453565b600060208284031215610e40578081fd5b8151610d6081611453565b60008060408385031215610e5d578081fd5b8235610e6881611453565b91506020830135610e7881611453565b809150509250929050565b60008060408385031215610e95578182fd5b8251610ea081611453565b6020840151909250610e7881611453565b600080600060608486031215610ec5578081fd5b8351610ed081611453565b6020850151909350610ee181611453565b6040850151909250610ef281611453565b809150509250925092565b600080600060608486031215610f11578283fd5b8335610f1c81611453565b92506020840135610f2c81611453565b929592945050506040919091013590565b600060208284031215610f4e578081fd5b81518015158114610d60578182fd5b600060208284031215610f6e578081fd5b815167ffffffffffffffff811115610f84578182fd5b8201601f81018413610f94578182fd5b8051610fa2610dcd826113ff565b818152856020838501011115610fb6578384fd5b610fc7826020830160208601611423565b95945050505050565b600060208284031215610fe1578081fd5b813567ffffffffffffffff80821115610ff8578283fd5b9083019060e0828603121561100b578283fd5b61101560e06113d8565b823582811115611023578485fd5b61102f87828601610daf565b825250602083013582811115611043578485fd5b61104f87828601610daf565b6020830152506110628660408501610e02565b6040820152606083013582811115611078578485fd5b61108487828601610daf565b606083015250608083013560808201526110a18660a08501610da4565b60a08201526110b38660c08501610da4565b60c082015295945050505050565b6000602082840312156110d2578081fd5b5035919050565b6000602082840312156110ea578081fd5b5051919050565b6001600160a01b03169052565b60008151808452611116816020860160208601611423565b601f01601f19169290920160200192915050565b600060018060a01b038251168352602082015160208401526040820151604084015260608201516080606085015261116560808501826110fe565b949350505050565b60ff169052565b6001600160a01b0391909116815260200190565b6001600160a01b0392831681529116602082015260400190565b6001600160a01b0393841681529183166020830152909116604082015260600190565b6001600160a01b0393841681529190921660208201526001600160e01b0319909116604082015260600190565b6001600160a01b039384168152919092166020820152604081019190915260600190565b600060018060a01b03861682528460208301526080604083015261123d60808301856110fe565b905082606083015295945050505050565b602080825260149082015273191ccb585d5d1a0b5d5b985d5d1a1bdc9a5e995960621b604082015260600190565b600060208252610d60602083018461112a565b6000604082526112a2604083018561112a565b905082151560208301529392505050565b81516001600160a01b039081168252602092830151169181019190915260400190565b60006020825282516101608060208501526112f56101808501836110fe565b91506020850151601f198086850301604087015261131384836110fe565b935060408701519150611329606087018361116d565b60608701519150808685030160808701525061134583826110fe565b925050608085015160a085015260a085015161136460c08601826110f1565b5060c085015161137760e08601826110f1565b5060e085015161010061138c818701836110f1565b86015190506101206113a0868201836110f1565b86015190506101406113b4868201836110f1565b86015190506113c5858301826110f1565b5090949350505050565b90815260200190565b60405181810167ffffffffffffffff811182821017156113f757600080fd5b604052919050565b600067ffffffffffffffff821115611415578081fd5b50601f01601f191660200190565b60005b8381101561143e578181015183820152602001611426565b8381111561144d576000848401525b50505050565b6001600160a01b038116811461146857600080fd5b5056fea2646970667358221220f02a98181dd293a443bea21f21484bb46fb594a914fb632a534f7c6b826f181e64736f6c634300060c0033000000000000000000000000ab77a941193fc6d3bce5851d0fbbb988d046b03c00000000000000000000000077f9568d874290bcb397f5bede112a203e81eacf0000000000000000000000005c5ced1a206aeaf1a70e53739f558205a034fc73",
        "nonce": "0xe3",
        "chainId": "0x14a34"
      },
      "additionalContracts": [],
      "isFixedGasLimit": false
    },
    {
      "hash": "0xaa7c7a25fe884604b33cc3ab63bd22965cb1c537bee93289493c695998676697",
      "transactionType": "CALL",
      "contractName": null,
      "contractAddress": "0x2b5124f88a21c291f4d26354a81db5680045d4de",
      "function": "setUserRole(address,uint8,bool)",
      "arguments": [
        "0x555a24b13DCc5b872BB9A3300e2E3282B02f1daa",
        "13",
        "true"
      ],
      "transaction": {
        "from": "0x53118050cc8fc8c6925cdc842b1784dcba9a4ba9",
        "to": "0x2b5124f88a21c291f4d26354a81db5680045d4de",
        "gas": "0xedf0",
        "value": "0x0",
        "input": "0x67aff484000000000000000000000000555a24b13dcc5b872bb9a3300e2e3282b02f1daa000000000000000000000000000000000000000000000000000000000000000d0000000000000000000000000000000000000000000000000000000000000001",
        "nonce": "0xe4",
        "chainId": "0x14a34"
      },
      "additionalContracts": [],
      "isFixedGasLimit": false
    },
    {
      "hash": "0xe72528cc9f3d3b666218c0a1a8267fbcfbe3a7834dd1f2e1604f00c771a8606a",
      "transactionType": "CALL",
      "contractName": null,
      "contractAddress": "0xc7b0fef22ab26d7a27e5f39765671b9ae8cae7bc",
      "function": "rely(address,address)",
      "arguments": [
        "0x5c5cEd1a206aEAF1A70e53739f558205a034fc73",
        "0x555a24b13DCc5b872BB9A3300e2E3282B02f1daa"
      ],
      "transaction": {
        "from": "0x53118050cc8fc8c6925cdc842b1784dcba9a4ba9",
        "to": "0xc7b0fef22ab26d7a27e5f39765671b9ae8cae7bc",
        "gas": "0x210ec",
        "value": "0x0",
        "input": "0xd95270f10000000000000000000000005c5ced1a206aeaf1a70e53739f558205a034fc73000000000000000000000000555a24b13dcc5b872bb9a3300e2e3282b02f1daa",
        "nonce": "0xe5",
        "chainId": "0x14a34"
      },
      "additionalContracts": [],
      "isFixedGasLimit": false
    },
    {
      "hash": "0xf6e00399074850b1a6c580b8bf0e56e8917b5c8ecb413ee3b45c2d43ec3e6d9d",
      "transactionType": "CALL",
      "contractName": null,
      "contractAddress": "0x50106eaaba72e86c83b8410fa8f65dc94b2409e7",
      "function": "setTokenHelper(address)",
      "arguments": [
        "0x555a24b13DCc5b872BB9A3300e2E3282B02f1daa"
      ],
      "transaction": {
        "from": "0x53118050cc8fc8c6925cdc842b1784dcba9a4ba9",
        "to": "0x50106eaaba72e86c83b8410fa8f65dc94b2409e7",
        "gas": "0x9aae",
        "value": "0x0",
        "input": "0x6c11ec96000000000000000000000000555a24b13dcc5b872bb9a3300e2e3282b02f1daa",
        "nonce": "0xe6",
        "chainId": "0x14a34"
      },
      "additionalContracts": [],
      "isFixedGasLimit": false
    },
    {
      "hash": "0xca472059fcc65334f16d031718aa50f57634ac5e897288d71aeb7e42d3131292",
      "transactionType": "CALL",
      "contractName": null,
      "contractAddress": "0x2b5124f88a21c291f4d26354a81db5680045d4de",
      "function": "setUserRole(address,uint8,bool)",
      "arguments": [
        "0x50106EAABa72e86C83b8410FA8f65dC94B2409e7",
        "12",
        "true"
      ],
      "transaction": {
        "from": "0x53118050cc8fc8c6925cdc842b1784dcba9a4ba9",
        "to": "0x2b5124f88a21c291f4d26354a81db5680045d4de",
        "gas": "0x8658",
        "value": "0x0",
        "input": "0x67aff48400000000000000000000000050106eaaba72e86c83b8410fa8f65dc94b2409e7000000000000000000000000000000000000000000000000000000000000000c0000000000000000000000000000000000000000000000000000000000000001",
        "nonce": "0xe7",
        "chainId": "0x14a34"
      },
      "additionalContracts": [],
      "isFixedGasLimit": false
    },
    {
      "hash": "0x2c858cb18e9527ebd540036faef80a3a2b242806124f456f1a815bcf6df2baa6",
      "transactionType": "CALL",
      "contractName": null,
      "contractAddress": "0x2b5124f88a21c291f4d26354a81db5680045d4de",
      "function": "setRoleCapability(uint8,address,bytes4,bool)",
      "arguments": [
        "12",
        "0x555a24b13DCc5b872BB9A3300e2E3282B02f1daa",
        "0xcfbfd839",
        "true"
      ],
      "transaction": {
        "from": "0x53118050cc8fc8c6925cdc842b1784dcba9a4ba9",
        "to": "0x2b5124f88a21c291f4d26354a81db5680045d4de",
        "gas": "0xf056",
        "value": "0x0",
        "input": "0x7d40583d000000000000000000000000000000000000000000000000000000000000000c000000000000000000000000555a24b13dcc5b872bb9a3300e2e3282b02f1daacfbfd839000000000000000000000000000000000000000000000000000000000000000000000000000000000000000000000000000000000000000000000001",
        "nonce": "0xe8",
        "chainId": "0x14a34"
      },
      "additionalContracts": [],
      "isFixedGasLimit": false
    }
  ],
  "receipts": [
    {
      "status": "0x1",
      "cumulativeGasUsed": "0xcb73f7",
      "logs": [
        {
          "address": "0x2b5124f88a21c291f4d26354a81db5680045d4de",
          "topics": [
            "0x1abebea81bfa2637f28358c371278fb15ede7ea8dd28d2e03b112ff6d936ada4",
            "0x0000000000000000000000002b5124f88a21c291f4d26354a81db5680045d4de"
          ],
          "data": "0x",
          "blockHash": "0x4edf8217f01ae8153ce5006c3110731efd80a0c3eaef8f247585eb0cd45d62cf",
          "blockNumber": "0x1635217",
          "transactionHash": "0x641bea3e5fa299d187d518532dbf60d824de4cd91d0c6489aa5bcfa46786312f",
          "transactionIndex": "0x21",
          "logIndex": "0x159",
          "removed": false
        }
      ],
      "logsBloom": "0x00000000000000000000000000000000000000000000000000000000000000000000000000000000000020010000000000000000000000000000000000000000000000000000000000000000000000000000000000000000000000000000000000000000000000000000000000000000000000000000000000000000000000020000000000000080000000000000000000000000000000000000000000000000000000000020000000000004000000008000200000000000000000000000000000000020000000000000000000000000000000000000000000000000000000000000000000000000000000000000000000000000000000000000000000000000",
      "type": "0x2",
      "transactionHash": "0x641bea3e5fa299d187d518532dbf60d824de4cd91d0c6489aa5bcfa46786312f",
      "transactionIndex": "0x21",
      "blockHash": "0x4edf8217f01ae8153ce5006c3110731efd80a0c3eaef8f247585eb0cd45d62cf",
      "blockNumber": "0x1635217",
      "gasUsed": "0xb8c4",
      "effectiveGasPrice": "0xf2f171",
      "from": "0x53118050cc8fc8c6925cdc842b1784dcba9a4ba9",
      "to": "0x2b5124f88a21c291f4d26354a81db5680045d4de",
      "contractAddress": null,
      "l1BaseFeeScalar": "0x44d",
      "l1BlobBaseFee": "0x1",
      "l1BlobBaseFeeScalar": "0xa118b",
      "l1Fee": "0x517e8e",
      "l1GasPrice": "0x2e42d0",
      "l1GasUsed": "0x640"
    },
    {
      "status": "0x1",
      "cumulativeGasUsed": "0xcbdb6e",
      "logs": [],
      "logsBloom": "0x00000000000000000000000000000000000000000000000000000000000000000000000000000000000000000000000000000000000000000000000000000000000000000000000000000000000000000000000000000000000000000000000000000000000000000000000000000000000000000000000000000000000000000000000000000000000000000000000000000000000000000000000000000000000000000000000000000000000000000000000000000000000000000000000000000000000000000000000000000000000000000000000000000000000000000000000000000000000000000000000000000000000000000000000000000000",
      "type": "0x2",
      "transactionHash": "0xc744dda36cbb9c9aefbe643ca2611f9129331e5039a8251a33b7321486c7908f",
      "transactionIndex": "0x22",
      "blockHash": "0x4edf8217f01ae8153ce5006c3110731efd80a0c3eaef8f247585eb0cd45d62cf",
      "blockNumber": "0x1635217",
      "gasUsed": "0x6777",
      "effectiveGasPrice": "0xf2f171",
      "from": "0x53118050cc8fc8c6925cdc842b1784dcba9a4ba9",
      "to": "0x2b5124f88a21c291f4d26354a81db5680045d4de",
      "contractAddress": null,
      "l1BaseFeeScalar": "0x44d",
      "l1BlobBaseFee": "0x1",
      "l1BlobBaseFeeScalar": "0xa118b",
      "l1Fee": "0x517e8e",
      "l1GasPrice": "0x2e42d0",
      "l1GasUsed": "0x640"
    },
    {
      "status": "0x1",
      "cumulativeGasUsed": "0xcfe02c",
      "logs": [],
      "logsBloom": "0x00000000000000000000000000000000000000000000000000000000000000000000000000000000000000000000000000000000000000000000000000000000000000000000000000000000000000000000000000000000000000000000000000000000000000000000000000000000000000000000000000000000000000000000000000000000000000000000000000000000000000000000000000000000000000000000000000000000000000000000000000000000000000000000000000000000000000000000000000000000000000000000000000000000000000000000000000000000000000000000000000000000000000000000000000000000",
      "type": "0x2",
      "transactionHash": "0x6a2e99f009f8c7a0b7c51850a13494cef337f9fbac5e7e9a984d28d635c7b9c4",
      "transactionIndex": "0x23",
      "blockHash": "0x4edf8217f01ae8153ce5006c3110731efd80a0c3eaef8f247585eb0cd45d62cf",
      "blockNumber": "0x1635217",
      "gasUsed": "0x404be",
      "effectiveGasPrice": "0xf2f171",
      "from": "0x53118050cc8fc8c6925cdc842b1784dcba9a4ba9",
      "to": null,
      "contractAddress": "0x77f9568d874290bcb397f5bede112a203e81eacf",
      "l1BaseFeeScalar": "0x44d",
      "l1BlobBaseFee": "0x1",
      "l1BlobBaseFeeScalar": "0xa118b",
      "l1Fee": "0x220bd8b",
      "l1GasPrice": "0x2e42d0",
      "l1GasUsed": "0x29c7"
    },
    {
      "status": "0x1",
      "cumulativeGasUsed": "0xf26409",
      "logs": [
        {
          "address": "0x555a24b13dcc5b872bb9a3300e2e3282b02f1daa",
          "topics": [
            "0xce241d7ca1f669fee44b6fc00b8eba2df3bb514eed0f6f668f8f89096e81ed94",
            "0x00000000000000000000000053118050cc8fc8c6925cdc842b1784dcba9a4ba9"
          ],
          "data": "0x",
          "blockHash": "0x4edf8217f01ae8153ce5006c3110731efd80a0c3eaef8f247585eb0cd45d62cf",
          "blockNumber": "0x1635217",
          "transactionHash": "0xd559a2116bb8f2afbcc7c6f7c1d297b4771297f6530ec8f6289419854aa57167",
          "transactionIndex": "0x28",
          "logIndex": "0x16d",
          "removed": false
        }
      ],
      "logsBloom": "0x00000000000000000000000000000000000000000000020000000000000000000000000000000000000000000000000000000000000000080000000000000000000100000000000000000000000000000000000000080000000100000000000000000000000000000000000000000000000000000000000000000000000000000000000000000000000000000000000000000000000000000000000000000008000000000000000000000000000000000000000000000000000000000000000000000000000000000000000000000000000000000000000000000000000000200000000000000000000000000000000000200000000080000000000000000000",
      "type": "0x2",
      "transactionHash": "0xd559a2116bb8f2afbcc7c6f7c1d297b4771297f6530ec8f6289419854aa57167",
      "transactionIndex": "0x28",
      "blockHash": "0x4edf8217f01ae8153ce5006c3110731efd80a0c3eaef8f247585eb0cd45d62cf",
      "blockNumber": "0x1635217",
      "gasUsed": "0x14315f",
      "effectiveGasPrice": "0xf2f171",
      "from": "0x53118050cc8fc8c6925cdc842b1784dcba9a4ba9",
      "to": null,
      "contractAddress": "0x555a24b13dcc5b872bb9a3300e2e3282b02f1daa",
      "l1BaseFeeScalar": "0x44d",
      "l1BlobBaseFee": "0x1",
      "l1BlobBaseFeeScalar": "0xa118b",
      "l1Fee": "0x9da5a61",
      "l1GasPrice": "0x2e42d0",
      "l1GasUsed": "0xc172"
    },
    {
      "status": "0x1",
      "cumulativeGasUsed": "0xf31a75",
      "logs": [],
      "logsBloom": "0x00000000000000000000000000000000000000000000000000000000000000000000000000000000000000000000000000000000000000000000000000000000000000000000000000000000000000000000000000000000000000000000000000000000000000000000000000000000000000000000000000000000000000000000000000000000000000000000000000000000000000000000000000000000000000000000000000000000000000000000000000000000000000000000000000000000000000000000000000000000000000000000000000000000000000000000000000000000000000000000000000000000000000000000000000000000",
      "type": "0x2",
      "transactionHash": "0xaa7c7a25fe884604b33cc3ab63bd22965cb1c537bee93289493c695998676697",
      "transactionIndex": "0x29",
      "blockHash": "0x4edf8217f01ae8153ce5006c3110731efd80a0c3eaef8f247585eb0cd45d62cf",
      "blockNumber": "0x1635217",
      "gasUsed": "0xb66c",
      "effectiveGasPrice": "0xf2f171",
      "from": "0x53118050cc8fc8c6925cdc842b1784dcba9a4ba9",
      "to": "0x2b5124f88a21c291f4d26354a81db5680045d4de",
      "contractAddress": null,
      "l1BaseFeeScalar": "0x44d",
      "l1BlobBaseFee": "0x1",
      "l1BlobBaseFeeScalar": "0xa118b",
      "l1Fee": "0x517e8e",
      "l1GasPrice": "0x2e42d0",
      "l1GasUsed": "0x640"
    },
    {
      "status": "0x1",
      "cumulativeGasUsed": "0xf4d654",
      "logs": [
        {
          "address": "0xab77a941193fc6d3bce5851d0fbbb988d046b03c",
          "topics": [
            "0x46d2fbbb00000000000000000000000000000000000000000000000000000000",
            "0x000000000000000000000000c7b0fef22ab26d7a27e5f39765671b9ae8cae7bc",
            "0x000000000000000000000000f09a0c07ef6d22440b511e0ffd1e8ace5463f790",
            "0x9a1d97ea1736b15149847a3e5ed6bbec3c77b196a0c20871f3865097ad1e402d"
          ],
          "data": "0x00000000000000000000000000000000000000000000000000000000000000000000000000000000000000000000000000000000000000000000000000000040000000000000000000000000000000000000000000000000000000000000010446d2fbbb000000000000000000000000f09a0c07ef6d22440b511e0ffd1e8ace5463f7909a1d97ea1736b15149847a3e5ed6bbec3c77b196a0c20871f3865097ad1e402d00000000000000000000000000000000000000000000000000000000000000800000000000000000000000000000000000000000000000000000000067da030e0000000000000000000000000000000000000000000000000000000000000044d95270f10000000000000000000000005c5ced1a206aeaf1a70e53739f558205a034fc73000000000000000000000000555a24b13dcc5b872bb9a3300e2e3282b02f1daa0000000000000000000000000000000000000000000000000000000000000000000000000000000000000000000000000000000000000000",
          "blockHash": "0x4edf8217f01ae8153ce5006c3110731efd80a0c3eaef8f247585eb0cd45d62cf",
          "blockNumber": "0x1635217",
          "transactionHash": "0xe72528cc9f3d3b666218c0a1a8267fbcfbe3a7834dd1f2e1604f00c771a8606a",
          "transactionIndex": "0x2a",
          "logIndex": "0x16e",
          "removed": false
        },
        {
          "address": "0xab77a941193fc6d3bce5851d0fbbb988d046b03c",
          "topics": [
            "0x168ccd6700000000000000000000000000000000000000000000000000000000",
            "0x000000000000000000000000c7b0fef22ab26d7a27e5f39765671b9ae8cae7bc",
            "0x000000000000000000000000f09a0c07ef6d22440b511e0ffd1e8ace5463f790",
            "0x9a1d97ea1736b15149847a3e5ed6bbec3c77b196a0c20871f3865097ad1e402d"
          ],
          "data": "0x000000000000000000000000000000000000000000000000000000000000000000000000000000000000000000000000000000000000000000000000000000400000000000000000000000000000000000000000000000000000000000000104168ccd67000000000000000000000000f09a0c07ef6d22440b511e0ffd1e8ace5463f7909a1d97ea1736b15149847a3e5ed6bbec3c77b196a0c20871f3865097ad1e402d00000000000000000000000000000000000000000000000000000000000000800000000000000000000000000000000000000000000000000000000067da030e0000000000000000000000000000000000000000000000000000000000000044d95270f10000000000000000000000005c5ced1a206aeaf1a70e53739f558205a034fc73000000000000000000000000555a24b13dcc5b872bb9a3300e2e3282b02f1daa0000000000000000000000000000000000000000000000000000000000000000000000000000000000000000000000000000000000000000",
          "blockHash": "0x4edf8217f01ae8153ce5006c3110731efd80a0c3eaef8f247585eb0cd45d62cf",
          "blockNumber": "0x1635217",
          "transactionHash": "0xe72528cc9f3d3b666218c0a1a8267fbcfbe3a7834dd1f2e1604f00c771a8606a",
          "transactionIndex": "0x2a",
          "logIndex": "0x16f",
          "removed": false
        }
      ],
      "logsBloom": "0x00400000000000000008000200000000000000000000000000102000000000002000000000000000000000100000000000000000000000000000000000000010020000000000000100000000000000000000000000000000000000000000000000000000000000000000000000000000000000000000000000000000000000000000000000000200001000000000000000000100000000000000000000000000001000000000000000000008000000000000000000000000000000000000000000000000000000000000000000000000000000200000000000000000000000000010000000000000000000000000000000000000020000000000000000000000",
      "type": "0x2",
      "transactionHash": "0xe72528cc9f3d3b666218c0a1a8267fbcfbe3a7834dd1f2e1604f00c771a8606a",
      "transactionIndex": "0x2a",
      "blockHash": "0x4edf8217f01ae8153ce5006c3110731efd80a0c3eaef8f247585eb0cd45d62cf",
      "blockNumber": "0x1635217",
      "gasUsed": "0x1bbdf",
      "effectiveGasPrice": "0xf2f171",
      "from": "0x53118050cc8fc8c6925cdc842b1784dcba9a4ba9",
      "to": "0xc7b0fef22ab26d7a27e5f39765671b9ae8cae7bc",
      "contractAddress": null,
      "l1BaseFeeScalar": "0x44d",
      "l1BlobBaseFee": "0x1",
      "l1BlobBaseFeeScalar": "0xa118b",
      "l1Fee": "0x528c2f",
      "l1GasPrice": "0x2e42d0",
      "l1GasUsed": "0x654"
    },
    {
      "status": "0x1",
      "cumulativeGasUsed": "0xf54845",
      "logs": [],
      "logsBloom": "0x00000000000000000000000000000000000000000000000000000000000000000000000000000000000000000000000000000000000000000000000000000000000000000000000000000000000000000000000000000000000000000000000000000000000000000000000000000000000000000000000000000000000000000000000000000000000000000000000000000000000000000000000000000000000000000000000000000000000000000000000000000000000000000000000000000000000000000000000000000000000000000000000000000000000000000000000000000000000000000000000000000000000000000000000000000000",
      "type": "0x2",
      "transactionHash": "0xf6e00399074850b1a6c580b8bf0e56e8917b5c8ecb413ee3b45c2d43ec3e6d9d",
      "transactionIndex": "0x2b",
      "blockHash": "0x4edf8217f01ae8153ce5006c3110731efd80a0c3eaef8f247585eb0cd45d62cf",
      "blockNumber": "0x1635217",
      "gasUsed": "0x71f1",
      "effectiveGasPrice": "0xf2f171",
      "from": "0x53118050cc8fc8c6925cdc842b1784dcba9a4ba9",
      "to": "0x50106eaaba72e86c83b8410fa8f65dc94b2409e7",
      "contractAddress": null,
      "l1BaseFeeScalar": "0x44d",
      "l1BlobBaseFee": "0x1",
      "l1BlobBaseFeeScalar": "0xa118b",
      "l1Fee": "0x517e8e",
      "l1GasPrice": "0x2e42d0",
      "l1GasUsed": "0x640"
    },
    {
      "status": "0x1",
      "cumulativeGasUsed": "0x28c9fe",
      "logs": [],
      "logsBloom": "0x00000000000000000000000000000000000000000000000000000000000000000000000000000000000000000000000000000000000000000000000000000000000000000000000000000000000000000000000000000000000000000000000000000000000000000000000000000000000000000000000000000000000000000000000000000000000000000000000000000000000000000000000000000000000000000000000000000000000000000000000000000000000000000000000000000000000000000000000000000000000000000000000000000000000000000000000000000000000000000000000000000000000000000000000000000000",
      "type": "0x2",
      "transactionHash": "0xca472059fcc65334f16d031718aa50f57634ac5e897288d71aeb7e42d3131292",
      "transactionIndex": "0xb",
      "blockHash": "0xaeed45b07bce689e269302de760982a942046fbe130652e03d1c91bbf557f37b",
      "blockNumber": "0x1635218",
      "gasUsed": "0x68b0",
      "effectiveGasPrice": "0xf30236",
      "from": "0x53118050cc8fc8c6925cdc842b1784dcba9a4ba9",
      "to": "0x2b5124f88a21c291f4d26354a81db5680045d4de",
      "contractAddress": null,
      "l1BaseFeeScalar": "0x44d",
      "l1BlobBaseFee": "0x1",
      "l1BlobBaseFeeScalar": "0xa118b",
      "l1Fee": "0x517e8e",
      "l1GasPrice": "0x2e42d0",
      "l1GasUsed": "0x640"
    },
    {
      "status": "0x1",
      "cumulativeGasUsed": "0x298226",
      "logs": [],
      "logsBloom": "0x00000000000000000000000000000000000000000000000000000000000000000000000000000000000000000000000000000000000000000000000000000000000000000000000000000000000000000000000000000000000000000000000000000000000000000000000000000000000000000000000000000000000000000000000000000000000000000000000000000000000000000000000000000000000000000000000000000000000000000000000000000000000000000000000000000000000000000000000000000000000000000000000000000000000000000000000000000000000000000000000000000000000000000000000000000000",
      "type": "0x2",
      "transactionHash": "0x2c858cb18e9527ebd540036faef80a3a2b242806124f456f1a815bcf6df2baa6",
      "transactionIndex": "0xc",
      "blockHash": "0xaeed45b07bce689e269302de760982a942046fbe130652e03d1c91bbf557f37b",
      "blockNumber": "0x1635218",
      "gasUsed": "0xb828",
      "effectiveGasPrice": "0xf30236",
      "from": "0x53118050cc8fc8c6925cdc842b1784dcba9a4ba9",
      "to": "0x2b5124f88a21c291f4d26354a81db5680045d4de",
      "contractAddress": null,
      "l1BaseFeeScalar": "0x44d",
      "l1BlobBaseFee": "0x1",
      "l1BlobBaseFeeScalar": "0xa118b",
      "l1Fee": "0x517e8e",
      "l1GasPrice": "0x2e42d0",
      "l1GasUsed": "0x640"
    }
  ],
  "libraries": [
    "lib/stablecoin-evm/contracts/util/SignatureChecker.sol:SignatureChecker:0x70fB096D6BCd14Db76a4119d83b4fC8FacC7c9bB"
  ],
  "pending": [],
  "returns": {},
  "timestamp": 1742340884,
  "chain": 84532,
  "commit": "f768bdd"
}