{
  "transactions": [
    {
      "hash": "0xba741cc0f65436c44269d1abf70b46f0e331ea06c932f803faf90e686c68f71f",
      "transactionType": "CALL",
      "contractName": "DSRoles",
      "contractAddress": "0xe75220cb014dfb2d354bb59be26d7458bb8d0706",
      "function": "setAuthority(address)",
      "arguments": [
        "0xe75220cB014Dfb2D354bb59be26d7458bB8d0706"
      ],
      "transaction": {
        "from": "0x76db01fc4fc21dd20f37bdf17dbe2d53e14bf1a2",
        "to": "0xe75220cb014dfb2d354bb59be26d7458bb8d0706",
        "gas": "0xf13d",
        "value": "0x0",
        "input": "0x7a9e5e4b000000000000000000000000e75220cb014dfb2d354bb59be26d7458bb8d0706",
        "nonce": "0xb9",
        "chainId": "0x1"
      },
      "additionalContracts": [],
      "isFixedGasLimit": false
    },
    {
      "hash": "0x17363913efb5b3c4ea5e9c3ea7993daa2239d7984283c5fc96cee154df8dd159",
      "transactionType": "CALL",
      "contractName": "DSRoles",
      "contractAddress": "0xe75220cb014dfb2d354bb59be26d7458bb8d0706",
      "function": "setRootUser(address,bool)",
      "arguments": [
        "0x76dB01fC4FC21dD20f37bdf17dbe2D53e14bf1a2",
        "true"
      ],
      "transaction": {
        "from": "0x76db01fc4fc21dd20f37bdf17dbe2d53e14bf1a2",
        "to": "0xe75220cb014dfb2d354bb59be26d7458bb8d0706",
        "gas": "0x8c76",
        "value": "0x0",
        "input": "0xd381ba7c00000000000000000000000076db01fc4fc21dd20f37bdf17dbe2d53e14bf1a20000000000000000000000000000000000000000000000000000000000000001",
        "nonce": "0xba",
        "chainId": "0x1"
      },
      "additionalContracts": [],
      "isFixedGasLimit": false
    },
    {
      "hash": "0xcd5990dbf787dd46ecbece0be9d9c8caf5fb4dc23f82a3f0303b8fa13d74fab1",
      "transactionType": "CREATE",
      "contractName": "TokenActions",
      "contractAddress": "0x2eedc42c8f424747f6181bdbbd822c649354e2dd",
      "function": null,
      "arguments": null,
      "transaction": {
        "from": "0x76db01fc4fc21dd20f37bdf17dbe2d53e14bf1a2",
        "gas": "0x5390a",
        "value": "0x0",
        "input": "0x608060405234801561001057600080fd5b506103cd806100206000396000f3fe608060405234801561001057600080fd5b506004361061004c5760003560e01c80631aaa3d9814610051578063ad28ff8814610066578063c6c3bbe614610079578063f6b911bc146100a2575b600080fd5b61006461005f36600461027f565b6100b5565b005b61006461007436600461027f565b610117565b61008c6100873660046102b3565b610143565b604051610099919061036b565b60405180910390f35b61008c6100b03660046102b3565b6101b0565b604051630d44a93360e11b81526001600160a01b03831690631a895266906100e190849060040161031a565b600060405180830381600087803b1580156100fb57600080fd5b505af115801561010f573d6000803e3d6000fd5b505050505050565b604051633e7e4af960e21b81526001600160a01b0383169063f9f92be4906100e190849060040161031a565b6040516340c10f1960e01b81526000906001600160a01b038516906340c10f19906101749086908690600401610352565b600060405180830381600087803b15801561018e57600080fd5b505af11580156101a2573d6000803e3d6000fd5b506001979650505050505050565b6040516323b872dd60e01b81526000906001600160a01b038516906323b872dd906101e39086903090879060040161032e565b602060405180830381600087803b1580156101fd57600080fd5b505af1158015610211573d6000803e3d6000fd5b505050506040513d601f19601f8201168201806040525081019061023591906102f3565b50604051630852cd8d60e31b81526001600160a01b038516906342966c6890610174908590600401610376565b80356001600160a01b038116811461027957600080fd5b92915050565b60008060408385031215610291578182fd5b61029b8484610262565b91506102aa8460208501610262565b90509250929050565b6000806000606084860312156102c7578081fd5b83356102d28161037f565b925060208401356102e28161037f565b929592945050506040919091013590565b600060208284031215610304578081fd5b81518015158114610313578182fd5b9392505050565b6001600160a01b0391909116815260200190565b6001600160a01b039384168152919092166020820152604081019190915260600190565b6001600160a01b03929092168252602082015260400190565b901515815260200190565b90815260200190565b6001600160a01b038116811461039457600080fd5b5056fea264697066735822122046b88643db107e50fc38ff181a10ef4f85ec03542d0aee42a9c2301fb53b1dd364736f6c634300060c0033",
        "nonce": "0xbb",
        "chainId": "0x1"
      },
      "additionalContracts": [],
      "isFixedGasLimit": false
    },
    {
      "hash": "0xfe398beeae4655994f34c48391cbfe4ef748be2a01212228e81fcd6cc84e22cb",
      "transactionType": "CREATE",
      "contractName": "PHTTokenHelper",
      "contractAddress": "0xa1ca80e8ef084c253a31e4b5b86afc8cfbdd1ff3",
      "function": null,
      "arguments": [
        "0xF1DCdC69847CBAd3dD73E56292cF94857F119c56",
        "0x2eedC42C8F424747F6181BDbBd822C649354E2Dd",
        "0x8E1460Bd6cAeCEa9b5aa1Fe4f5F19bAeA171A33b"
      ],
      "transaction": {
        "from": "0x76db01fc4fc21dd20f37bdf17dbe2d53e14bf1a2",
        "gas": "0x1a1008",
        "value": "0x0",
        "input": "0x60806040523480156200001157600080fd5b5060405162001764380380620017648339810160408190526200003491620001cc565b600180546001600160a01b031916339081179091556040517fce241d7ca1f669fee44b6fc00b8eba2df3bb514eed0f6f668f8f89096e81ed9490600090a26001600160a01b038116620000a45760405162461bcd60e51b81526004016200009b9062000256565b60405180910390fd5b6001600160a01b038316620000cd5760405162461bcd60e51b81526004016200009b906200021f565b600480546001600160a01b038084166001600160a01b03199283161783556003805486831690841617905560028054878316931692909217918290556040805163bf7e214f60e01b81529051929091169263bf7e214f928282019260209290829003018186803b1580156200014157600080fd5b505afa15801562000156573d6000803e3d6000fd5b505050506040513d601f19601f820116820180604052508101906200017c9190620001a6565b600080546001600160a01b0319166001600160a01b039290921691909117905550620002b3915050565b600060208284031215620001b8578081fd5b8151620001c5816200029a565b9392505050565b600080600060608486031215620001e1578182fd5b8351620001ee816200029a565b602085015190935062000201816200029a565b604085015190925062000214816200029a565b809150509250925092565b6020808252601c908201527f504854546f6b656e48656c7065722f70617573652d6e6f742d73657400000000604082015260600190565b60208082526024908201527f504854546f6b656e48656c7065722f746f6b656e2d666163746f72792d6e6f746040820152630b5cd95d60e21b606082015260800190565b6001600160a01b0381168114620002b057600080fd5b50565b6114a180620002c36000396000f3fe608060405234801561001057600080fd5b50600436106100f55760003560e01c8063ad28ff8811610097578063e486033911610066578063e4860339146101e3578063e5df8b8414610203578063e77772fe14610216578063f6b911bc1461021e576100f5565b8063ad28ff8814610185578063bf7e214f14610198578063c6c3bbe6146101a0578063cfbfd839146101c1576100f5565b80637a9e5e4b116100d35780637a9e5e4b1461014d5780638456cb59146101605780638da5cb5b1461017557806398ce5b4c1461017d576100f5565b806313af4035146100fa5780631aaa3d981461010f5780632f796f5014610138575b600080fd5b61010d610108366004610e13565b610231565b005b61012261011d366004610e4b565b6102bc565b60405161012f919061127c565b60405180910390f35b610140610510565b60405161012f91906113cf565b61010d61015b366004610e13565b61059d565b61016861061b565b60405161012f9190611174565b61016861062a565b610168610639565b610122610193366004610e4b565b610648565b6101686106b3565b6101b36101ae366004610efd565b6106c2565b60405161012f92919061128f565b6101d46101cf366004610fd0565b610931565b60405161012f939291906111a2565b6101f66101f1366004610e13565b610ae7565b60405161012f91906112b3565b6101686102113660046110c1565b610b85565b610168610c0d565b6101b361022c366004610efd565b610c1c565b610247336000356001600160e01b031916610c8b565b61026c5760405162461bcd60e51b81526004016102639061124e565b60405180910390fd5b600180546001600160a01b0319166001600160a01b0383811691909117918290556040519116907fce241d7ca1f669fee44b6fc00b8eba2df3bb514eed0f6f668f8f89096e81ed9490600090a250565b6102c4610d67565b6102da336000356001600160e01b031916610c8b565b6102f65760405162461bcd60e51b81526004016102639061124e565b6003546040516001600160a01b0390911690813f9060609063035547b360e31b906103279088908890602401611188565b60408051601f19818403018152918152602080830180516001600160e01b03166001600160e01b0319909516949094179093526002548151630d48571f60e31b815291519294506000936001600160a01b0390911692636a42b8f8926004808201939291829003018186803b15801561039f57600080fd5b505afa1580156103b3573d6000803e3d6000fd5b505050506040513d601f19601f820116820180604052508101906103d791906110d9565b6002546040516346d2fbbb60e01b8152919250428301916001600160a01b03909116906346d2fbbb90610414908890889088908790600401611216565b600060405180830381600087803b15801561042e57600080fd5b505af1158015610442573d6000803e3d6000fd5b5050505081600014156104dd5760025460405163168ccd6760e01b81526001600160a01b039091169063168ccd6790610485908890889088908790600401611216565b600060405180830381600087803b15801561049f57600080fd5b505af11580156104b3573d6000803e3d6000fd5b505050506040513d6000823e601f3d908101601f191682016040526104db9190810190610f5d565b505b604080516080810182526001600160a01b0390961686526020860194909452928401929092526060830152509392505050565b6000600460009054906101000a90046001600160a01b03166001600160a01b0316632f796f506040518163ffffffff1660e01b815260040160206040518083038186803b15801561056057600080fd5b505afa158015610574573d6000803e3d6000fd5b505050506040513d601f19601f8201168201806040525081019061059891906110d9565b905090565b6105b3336000356001600160e01b031916610c8b565b6105cf5760405162461bcd60e51b81526004016102639061124e565b600080546001600160a01b0319166001600160a01b03838116919091178083556040519116917f1abebea81bfa2637f28358c371278fb15ede7ea8dd28d2e03b112ff6d936ada491a250565b6002546001600160a01b031681565b6001546001600160a01b031681565b6003546001600160a01b031681565b610650610d67565b610666336000356001600160e01b031916610c8b565b6106825760405162461bcd60e51b81526004016102639061124e565b6003546040516001600160a01b0390911690813f906060906315a51ff160e31b906103279088908890602401611188565b6000546001600160a01b031681565b6106ca610d67565b60006106e2336000356001600160e01b031916610c8b565b6106fe5760405162461bcd60e51b81526004016102639061124e565b6003546040516001600160a01b0390911690813f90606090636361ddf360e11b90610731908a908a908a906024016111f2565b60408051601f19818403018152918152602080830180516001600160e01b03166001600160e01b0319909516949094179093526002548151630d48571f60e31b815291519294506000936001600160a01b0390911692636a42b8f8926004808201939291829003018186803b1580156107a957600080fd5b505afa1580156107bd573d6000803e3d6000fd5b505050506040513d601f19601f820116820180604052508101906107e191906110d9565b6002546040516346d2fbbb60e01b8152919250428301916001600160a01b03909116906346d2fbbb9061081e908890889088908790600401611216565b600060405180830381600087803b15801561083857600080fd5b505af115801561084c573d6000803e3d6000fd5b5050505081600014156108fb5760025460405163168ccd6760e01b81526001600160a01b039091169063168ccd679061088f908890889088908790600401611216565b600060405180830381600087803b1580156108a957600080fd5b505af11580156108bd573d6000803e3d6000fd5b505050506040513d6000823e601f3d908101601f191682016040526108e59190810190610f5d565b8060200190518101906108f89190610f3d565b95505b604080516080810182526001600160a01b0390961686526020860194909452928401929092526060830152509590945092505050565b600080600061094c336000356001600160e01b031916610c8b565b6109685760405162461bcd60e51b81526004016102639061124e565b6002546040805163ec55688960e01b815290516000926001600160a01b03169163ec556889916004808301926020929190829003018186803b1580156109ad57600080fd5b505afa1580156109c1573d6000803e3d6000fd5b505050506040513d601f19601f820116820180604052508101906109e59190610e2f565b600480546040805161016081018252895181526020808b0151908201528982015160ff16818301526060808b0151908201526080808b01519082015260a0808b01516001600160a01b039081169183019190915280861660c08084018290528c0151821660e08401526101008301819052610120830181905261014083015291516337bb18fd60e01b81529495509116926337bb18fd92610a879291016112d6565b606060405180830381600087803b158015610aa157600080fd5b505af1158015610ab5573d6000803e3d6000fd5b505050506040513d601f19601f82011682018060405250810190610ad99190610eb1565b919790965090945092505050565b610aef610d8d565b6004805460405163e486033960e01b81526001600160a01b039091169163e486033991610b1e91869101611174565b604080518083038186803b158015610b3557600080fd5b505afa158015610b49573d6000803e3d6000fd5b505050506040513d601f19601f82011682018060405250810190610b6d9190610e83565b6001600160a01b039081166020840152168152919050565b60048054604051633977e2e160e21b81526000926001600160a01b039092169163e5df8b8491610bb7918691016113cf565b60206040518083038186803b158015610bcf57600080fd5b505afa158015610be3573d6000803e3d6000fd5b505050506040513d601f19601f82011682018060405250810190610c079190610e2f565b92915050565b6004546001600160a01b031681565b610c24610d67565b6000610c3c336000356001600160e01b031916610c8b565b610c585760405162461bcd60e51b81526004016102639061124e565b6003546040516001600160a01b0390911690813f90606090633dae446f60e21b90610731908a908a908a906024016111f2565b60006001600160a01b038316301415610ca657506001610c07565b6001546001600160a01b0384811691161415610cc457506001610c07565b6000546001600160a01b0316610cdc57506000610c07565b60005460405163b700961360e01b81526001600160a01b039091169063b700961390610d10908690309087906004016111c5565b60206040518083038186803b158015610d2857600080fd5b505afa158015610d3c573d6000803e3d6000fd5b505050506040513d601f19601f82011682018060405250810190610d609190610f3d565b9392505050565b604080516080810182526000808252602082018190529181019190915260608082015290565b604080518082019091526000808252602082015290565b8035610c0781611453565b600082601f830112610dbf578081fd5b8135610dd2610dcd826113ff565b6113d8565b9150808252836020828501011115610de957600080fd5b8060208401602084013760009082016020015292915050565b803560ff81168114610c0757600080fd5b600060208284031215610e24578081fd5b8135610d6081611453565b600060208284031215610e40578081fd5b8151610d6081611453565b60008060408385031215610e5d578081fd5b8235610e6881611453565b91506020830135610e7881611453565b809150509250929050565b60008060408385031215610e95578182fd5b8251610ea081611453565b6020840151909250610e7881611453565b600080600060608486031215610ec5578081fd5b8351610ed081611453565b6020850151909350610ee181611453565b6040850151909250610ef281611453565b809150509250925092565b600080600060608486031215610f11578283fd5b8335610f1c81611453565b92506020840135610f2c81611453565b929592945050506040919091013590565b600060208284031215610f4e578081fd5b81518015158114610d60578182fd5b600060208284031215610f6e578081fd5b815167ffffffffffffffff811115610f84578182fd5b8201601f81018413610f94578182fd5b8051610fa2610dcd826113ff565b818152856020838501011115610fb6578384fd5b610fc7826020830160208601611423565b95945050505050565b600060208284031215610fe1578081fd5b813567ffffffffffffffff80821115610ff8578283fd5b9083019060e0828603121561100b578283fd5b61101560e06113d8565b823582811115611023578485fd5b61102f87828601610daf565b825250602083013582811115611043578485fd5b61104f87828601610daf565b6020830152506110628660408501610e02565b6040820152606083013582811115611078578485fd5b61108487828601610daf565b606083015250608083013560808201526110a18660a08501610da4565b60a08201526110b38660c08501610da4565b60c082015295945050505050565b6000602082840312156110d2578081fd5b5035919050565b6000602082840312156110ea578081fd5b5051919050565b6001600160a01b03169052565b60008151808452611116816020860160208601611423565b601f01601f19169290920160200192915050565b600060018060a01b038251168352602082015160208401526040820151604084015260608201516080606085015261116560808501826110fe565b949350505050565b60ff169052565b6001600160a01b0391909116815260200190565b6001600160a01b0392831681529116602082015260400190565b6001600160a01b0393841681529183166020830152909116604082015260600190565b6001600160a01b0393841681529190921660208201526001600160e01b0319909116604082015260600190565b6001600160a01b039384168152919092166020820152604081019190915260600190565b600060018060a01b03861682528460208301526080604083015261123d60808301856110fe565b905082606083015295945050505050565b602080825260149082015273191ccb585d5d1a0b5d5b985d5d1a1bdc9a5e995960621b604082015260600190565b600060208252610d60602083018461112a565b6000604082526112a2604083018561112a565b905082151560208301529392505050565b81516001600160a01b039081168252602092830151169181019190915260400190565b60006020825282516101608060208501526112f56101808501836110fe565b91506020850151601f198086850301604087015261131384836110fe565b935060408701519150611329606087018361116d565b60608701519150808685030160808701525061134583826110fe565b925050608085015160a085015260a085015161136460c08601826110f1565b5060c085015161137760e08601826110f1565b5060e085015161010061138c818701836110f1565b86015190506101206113a0868201836110f1565b86015190506101406113b4868201836110f1565b86015190506113c5858301826110f1565b5090949350505050565b90815260200190565b60405181810167ffffffffffffffff811182821017156113f757600080fd5b604052919050565b600067ffffffffffffffff821115611415578081fd5b50601f01601f191660200190565b60005b8381101561143e578181015183820152602001611426565b8381111561144d576000848401525b50505050565b6001600160a01b038116811461146857600080fd5b5056fea2646970667358221220f02a98181dd293a443bea21f21484bb46fb594a914fb632a534f7c6b826f181e64736f6c634300060c0033000000000000000000000000f1dcdc69847cbad3dd73e56292cf94857f119c560000000000000000000000002eedc42c8f424747f6181bdbbd822c649354e2dd0000000000000000000000008e1460bd6caecea9b5aa1fe4f5f19baea171a33b",
        "nonce": "0xbc",
        "chainId": "0x1"
      },
      "additionalContracts": [],
      "isFixedGasLimit": false
    },
    {
      "hash": "0xddd53ebf2b12449d3d5038bf2f5febd37b8b8f946dfd5e8c1c21b22cbcba5d57",
      "transactionType": "CALL",
      "contractName": "DSRoles",
      "contractAddress": "0xe75220cb014dfb2d354bb59be26d7458bb8d0706",
      "function": "setUserRole(address,uint8,bool)",
      "arguments": [
        "0xa1CA80E8EF084C253A31E4b5b86afC8CfBdd1ff3",
        "13",
        "true"
      ],
      "transaction": {
        "from": "0x76db01fc4fc21dd20f37bdf17dbe2d53e14bf1a2",
        "to": "0xe75220cb014dfb2d354bb59be26d7458bb8d0706",
        "gas": "0xedf0",
        "value": "0x0",
        "input": "0x67aff484000000000000000000000000a1ca80e8ef084c253a31e4b5b86afc8cfbdd1ff3000000000000000000000000000000000000000000000000000000000000000d0000000000000000000000000000000000000000000000000000000000000001",
        "nonce": "0xbd",
        "chainId": "0x1"
      },
      "additionalContracts": [],
      "isFixedGasLimit": false
    },
    {
      "hash": "0xf60d5ca5e44a26df7abd1f96a510f1991a09814aea1e67d440c2c2a63dcff85f",
      "transactionType": "CALL",
      "contractName": null,
      "contractAddress": "0x8fc0503b224c337de589a8df56e725d8609b03fd",
      "function": "rely(address,address)",
      "arguments": [
        "0x8E1460Bd6cAeCEa9b5aa1Fe4f5F19bAeA171A33b",
        "0xa1CA80E8EF084C253A31E4b5b86afC8CfBdd1ff3"
      ],
      "transaction": {
        "from": "0x76db01fc4fc21dd20f37bdf17dbe2d53e14bf1a2",
        "to": "0x8fc0503b224c337de589a8df56e725d8609b03fd",
        "gas": "0x210ec",
        "value": "0x0",
        "input": "0xd95270f10000000000000000000000008e1460bd6caecea9b5aa1fe4f5f19baea171a33b000000000000000000000000a1ca80e8ef084c253a31e4b5b86afc8cfbdd1ff3",
        "nonce": "0xbe",
        "chainId": "0x1"
      },
      "additionalContracts": [],
      "isFixedGasLimit": false
    },
    {
      "hash": "0x1dbf50feffa587518109a5287ac86766b1f1708325a1a52a36873d69d6d2bbb1",
      "transactionType": "CALL",
      "contractName": null,
      "contractAddress": "0xd39cf17fcf9fd2e2dcce24fc06d61d496f1a9421",
      "function": "setTokenHelper(address)",
      "arguments": [
        "0xa1CA80E8EF084C253A31E4b5b86afC8CfBdd1ff3"
      ],
      "transaction": {
        "from": "0x76db01fc4fc21dd20f37bdf17dbe2d53e14bf1a2",
        "to": "0xd39cf17fcf9fd2e2dcce24fc06d61d496f1a9421",
        "gas": "0x9aae",
        "value": "0x0",
        "input": "0x6c11ec96000000000000000000000000a1ca80e8ef084c253a31e4b5b86afc8cfbdd1ff3",
        "nonce": "0xbf",
        "chainId": "0x1"
      },
      "additionalContracts": [],
      "isFixedGasLimit": false
    },
    {
      "hash": "0xad31ebc7b02540395c2c8467916fbafd7df492a0d310434c6eda91045ca22884",
      "transactionType": "CALL",
      "contractName": "DSRoles",
      "contractAddress": "0xe75220cb014dfb2d354bb59be26d7458bb8d0706",
      "function": "setUserRole(address,uint8,bool)",
      "arguments": [
        "0xD39cf17fCf9Fd2e2DcCe24Fc06d61d496F1a9421",
        "12",
        "true"
      ],
      "transaction": {
        "from": "0x76db01fc4fc21dd20f37bdf17dbe2d53e14bf1a2",
        "to": "0xe75220cb014dfb2d354bb59be26d7458bb8d0706",
        "gas": "0x8658",
        "value": "0x0",
        "input": "0x67aff484000000000000000000000000d39cf17fcf9fd2e2dcce24fc06d61d496f1a9421000000000000000000000000000000000000000000000000000000000000000c0000000000000000000000000000000000000000000000000000000000000001",
        "nonce": "0xc0",
        "chainId": "0x1"
      },
      "additionalContracts": [],
      "isFixedGasLimit": false
    },
    {
      "hash": "0x77b83c2d28b1e19a8aa62d53547e26874f4ae98bde26b7d668ab2af1143a13aa",
      "transactionType": "CALL",
      "contractName": "DSRoles",
      "contractAddress": "0xe75220cb014dfb2d354bb59be26d7458bb8d0706",
      "function": "setRoleCapability(uint8,address,bytes4,bool)",
      "arguments": [
        "12",
        "0xa1CA80E8EF084C253A31E4b5b86afC8CfBdd1ff3",
        "0xcfbfd839",
        "true"
      ],
      "transaction": {
        "from": "0x76db01fc4fc21dd20f37bdf17dbe2d53e14bf1a2",
        "to": "0xe75220cb014dfb2d354bb59be26d7458bb8d0706",
        "gas": "0xf056",
        "value": "0x0",
        "input": "0x7d40583d000000000000000000000000000000000000000000000000000000000000000c000000000000000000000000a1ca80e8ef084c253a31e4b5b86afc8cfbdd1ff3cfbfd839000000000000000000000000000000000000000000000000000000000000000000000000000000000000000000000000000000000000000000000001",
        "nonce": "0xc1",
        "chainId": "0x1"
      },
      "additionalContracts": [],
      "isFixedGasLimit": false
    }
  ],
  "receipts": [
    {
      "status": "0x1",
      "cumulativeGasUsed": "0x1f9d548",
      "logs": [
        {
          "address": "0xe75220cb014dfb2d354bb59be26d7458bb8d0706",
          "topics": [
            "0x1abebea81bfa2637f28358c371278fb15ede7ea8dd28d2e03b112ff6d936ada4",
            "0x000000000000000000000000e75220cb014dfb2d354bb59be26d7458bb8d0706"
          ],
          "data": "0x",
          "blockHash": "0x070d3bde0ba442fdde5c36f2084f924f7ead8b04bf84825e9a6cc09ed8872522",
          "blockNumber": "0x1510505",
          "blockTimestamp": "0x67dbd37b",
          "transactionHash": "0xba741cc0f65436c44269d1abf70b46f0e331ea06c932f803faf90e686c68f71f",
          "transactionIndex": "0xb9",
          "logIndex": "0x1d0",
          "removed": false
        }
      ],
      "logsBloom": "0x00000000000000000000000000000000000000000000000000000000000000000000000000000000000020010000000000000000000000000000000000000008000000000000000040000000000000000000000000000000000000000000000000000000000000000000000000000000000000000000000000000000000000020000000000000000000000000000000000000100000000000000000000000000000000000000000000000000000001000000000000000000000000000000000000000100000000000000000000000000008000000000000000000000000000000000000000000000000000000000000000000000000000000000000000000000",
      "type": "0x2",
      "transactionHash": "0xba741cc0f65436c44269d1abf70b46f0e331ea06c932f803faf90e686c68f71f",
      "transactionIndex": "0xb9",
      "blockHash": "0x070d3bde0ba442fdde5c36f2084f924f7ead8b04bf84825e9a6cc09ed8872522",
      "blockNumber": "0x1510505",
      "gasUsed": "0xb8d0",
      "effectiveGasPrice": "0x176f2035",
      "from": "0x76db01fc4fc21dd20f37bdf17dbe2d53e14bf1a2",
      "to": "0xe75220cb014dfb2d354bb59be26d7458bb8d0706",
      "contractAddress": null
    },
    {
      "status": "0x1",
      "cumulativeGasUsed": "0x1fa3cbf",
      "logs": [],
      "logsBloom": "0x00000000000000000000000000000000000000000000000000000000000000000000000000000000000000000000000000000000000000000000000000000000000000000000000000000000000000000000000000000000000000000000000000000000000000000000000000000000000000000000000000000000000000000000000000000000000000000000000000000000000000000000000000000000000000000000000000000000000000000000000000000000000000000000000000000000000000000000000000000000000000000000000000000000000000000000000000000000000000000000000000000000000000000000000000000000",
      "type": "0x2",
      "transactionHash": "0x17363913efb5b3c4ea5e9c3ea7993daa2239d7984283c5fc96cee154df8dd159",
      "transactionIndex": "0xba",
      "blockHash": "0x070d3bde0ba442fdde5c36f2084f924f7ead8b04bf84825e9a6cc09ed8872522",
      "blockNumber": "0x1510505",
      "gasUsed": "0x6777",
      "effectiveGasPrice": "0x176f2035",
      "from": "0x76db01fc4fc21dd20f37bdf17dbe2d53e14bf1a2",
      "to": "0xe75220cb014dfb2d354bb59be26d7458bb8d0706",
      "contractAddress": null
    },
    {
      "status": "0x1",
      "cumulativeGasUsed": "0x1fe417d",
      "logs": [],
      "logsBloom": "0x00000000000000000000000000000000000000000000000000000000000000000000000000000000000000000000000000000000000000000000000000000000000000000000000000000000000000000000000000000000000000000000000000000000000000000000000000000000000000000000000000000000000000000000000000000000000000000000000000000000000000000000000000000000000000000000000000000000000000000000000000000000000000000000000000000000000000000000000000000000000000000000000000000000000000000000000000000000000000000000000000000000000000000000000000000000",
      "type": "0x2",
      "transactionHash": "0xcd5990dbf787dd46ecbece0be9d9c8caf5fb4dc23f82a3f0303b8fa13d74fab1",
      "transactionIndex": "0xbb",
      "blockHash": "0x070d3bde0ba442fdde5c36f2084f924f7ead8b04bf84825e9a6cc09ed8872522",
      "blockNumber": "0x1510505",
      "gasUsed": "0x404be",
      "effectiveGasPrice": "0x176f2035",
      "from": "0x76db01fc4fc21dd20f37bdf17dbe2d53e14bf1a2",
      "to": null,
      "contractAddress": "0x2eedc42c8f424747f6181bdbbd822c649354e2dd"
    },
    {
      "status": "0x1",
      "cumulativeGasUsed": "0x104aea5",
      "logs": [
        {
          "address": "0xa1ca80e8ef084c253a31e4b5b86afc8cfbdd1ff3",
          "topics": [
            "0xce241d7ca1f669fee44b6fc00b8eba2df3bb514eed0f6f668f8f89096e81ed94",
            "0x00000000000000000000000076db01fc4fc21dd20f37bdf17dbe2d53e14bf1a2"
          ],
          "data": "0x",
          "blockHash": "0x5798e98de0b4b942441a6b1db31fe0072ec5f257975509cda2472c883c28f5af",
          "blockNumber": "0x1510506",
          "blockTimestamp": "0x67dbd387",
          "transactionHash": "0xfe398beeae4655994f34c48391cbfe4ef748be2a01212228e81fcd6cc84e22cb",
          "transactionIndex": "0x7c",
          "logIndex": "0x10a",
          "removed": false
        }
      ],
      "logsBloom": "0x00000000000000000000000000000000000000000000020000000000000000000000000000000000000000000000000000000400000000080000000000000000420000000000000000000000000000000000000000080000000000000000000000000000000000000000000000000000000000000000000000000000000000000000000000000000000000000000008000000000000000000000000000000000000000000000000000000000000000000000000000000000000000000000000000000000000000000020000000080000000000000000000000000000000000000000000000000000000000000000000000000000000000000000000000000000",
      "type": "0x2",
      "transactionHash": "0xfe398beeae4655994f34c48391cbfe4ef748be2a01212228e81fcd6cc84e22cb",
      "transactionIndex": "0x7c",
      "blockHash": "0x5798e98de0b4b942441a6b1db31fe0072ec5f257975509cda2472c883c28f5af",
      "blockNumber": "0x1510506",
      "gasUsed": "0x14315f",
      "effectiveGasPrice": "0x1a3f7547",
      "from": "0x76db01fc4fc21dd20f37bdf17dbe2d53e14bf1a2",
      "to": null,
      "contractAddress": "0xa1ca80e8ef084c253a31e4b5b86afc8cfbdd1ff3"
    },
    {
      "status": "0x1",
      "cumulativeGasUsed": "0x1056511",
      "logs": [],
      "logsBloom": "0x00000000000000000000000000000000000000000000000000000000000000000000000000000000000000000000000000000000000000000000000000000000000000000000000000000000000000000000000000000000000000000000000000000000000000000000000000000000000000000000000000000000000000000000000000000000000000000000000000000000000000000000000000000000000000000000000000000000000000000000000000000000000000000000000000000000000000000000000000000000000000000000000000000000000000000000000000000000000000000000000000000000000000000000000000000000",
      "type": "0x2",
      "transactionHash": "0xddd53ebf2b12449d3d5038bf2f5febd37b8b8f946dfd5e8c1c21b22cbcba5d57",
      "transactionIndex": "0x7d",
      "blockHash": "0x5798e98de0b4b942441a6b1db31fe0072ec5f257975509cda2472c883c28f5af",
      "blockNumber": "0x1510506",
      "gasUsed": "0xb66c",
      "effectiveGasPrice": "0x1a3f7547",
      "from": "0x76db01fc4fc21dd20f37bdf17dbe2d53e14bf1a2",
      "to": "0xe75220cb014dfb2d354bb59be26d7458bb8d0706",
      "contractAddress": null
    },
    {
      "status": "0x1",
      "cumulativeGasUsed": "0x10720f0",
      "logs": [
        {
          "address": "0xf1dcdc69847cbad3dd73e56292cf94857f119c56",
          "topics": [
            "0x46d2fbbb00000000000000000000000000000000000000000000000000000000",
            "0x0000000000000000000000008fc0503b224c337de589a8df56e725d8609b03fd",
            "0x000000000000000000000000baabfe3b9fe2ccef5e9b2cad819723076c755af5",
            "0x9a1d97ea1736b15149847a3e5ed6bbec3c77b196a0c20871f3865097ad1e402d"
          ],
          "data": "0x00000000000000000000000000000000000000000000000000000000000000000000000000000000000000000000000000000000000000000000000000000040000000000000000000000000000000000000000000000000000000000000010446d2fbbb000000000000000000000000baabfe3b9fe2ccef5e9b2cad819723076c755af59a1d97ea1736b15149847a3e5ed6bbec3c77b196a0c20871f3865097ad1e402d00000000000000000000000000000000000000000000000000000000000000800000000000000000000000000000000000000000000000000000000067dbd3870000000000000000000000000000000000000000000000000000000000000044d95270f10000000000000000000000008e1460bd6caecea9b5aa1fe4f5f19baea171a33b000000000000000000000000a1ca80e8ef084c253a31e4b5b86afc8cfbdd1ff30000000000000000000000000000000000000000000000000000000000000000000000000000000000000000000000000000000000000000",
          "blockHash": "0x5798e98de0b4b942441a6b1db31fe0072ec5f257975509cda2472c883c28f5af",
          "blockNumber": "0x1510506",
          "blockTimestamp": "0x67dbd387",
          "transactionHash": "0xf60d5ca5e44a26df7abd1f96a510f1991a09814aea1e67d440c2c2a63dcff85f",
          "transactionIndex": "0x7e",
          "logIndex": "0x10b",
          "removed": false
        },
        {
          "address": "0xf1dcdc69847cbad3dd73e56292cf94857f119c56",
          "topics": [
            "0x168ccd6700000000000000000000000000000000000000000000000000000000",
            "0x0000000000000000000000008fc0503b224c337de589a8df56e725d8609b03fd",
            "0x000000000000000000000000baabfe3b9fe2ccef5e9b2cad819723076c755af5",
            "0x9a1d97ea1736b15149847a3e5ed6bbec3c77b196a0c20871f3865097ad1e402d"
          ],
          "data": "0x000000000000000000000000000000000000000000000000000000000000000000000000000000000000000000000000000000000000000000000000000000400000000000000000000000000000000000000000000000000000000000000104168ccd67000000000000000000000000baabfe3b9fe2ccef5e9b2cad819723076c755af59a1d97ea1736b15149847a3e5ed6bbec3c77b196a0c20871f3865097ad1e402d00000000000000000000000000000000000000000000000000000000000000800000000000000000000000000000000000000000000000000000000067dbd3870000000000000000000000000000000000000000000000000000000000000044d95270f10000000000000000000000008e1460bd6caecea9b5aa1fe4f5f19baea171a33b000000000000000000000000a1ca80e8ef084c253a31e4b5b86afc8cfbdd1ff30000000000000000000000000000000000000000000000000000000000000000000000000000000000000000000000000000000000000000",
          "blockHash": "0x5798e98de0b4b942441a6b1db31fe0072ec5f257975509cda2472c883c28f5af",
          "blockNumber": "0x1510506",
          "blockTimestamp": "0x67dbd387",
          "transactionHash": "0xf60d5ca5e44a26df7abd1f96a510f1991a09814aea1e67d440c2c2a63dcff85f",
          "transactionIndex": "0x7e",
          "logIndex": "0x10c",
          "removed": false
        }
      ],
      "logsBloom": "0x00000000000000000000000000000000100000000000000000102020000000002000000000000000000000000000000000000000000000000000000000000010020000000000400000000000000000000000000000000000000000000008000000000000000000000000000000000200000000000000000000000000000080000000000000000000000000000000000000000100000000000000000000000000001000000000000000000000000000000000000000000008000000000002000000000000000000000000000000000000000000000000000000040000000000000010000000000000000000000000000000000000020000000000000000000000",
      "type": "0x2",
      "transactionHash": "0xf60d5ca5e44a26df7abd1f96a510f1991a09814aea1e67d440c2c2a63dcff85f",
      "transactionIndex": "0x7e",
      "blockHash": "0x5798e98de0b4b942441a6b1db31fe0072ec5f257975509cda2472c883c28f5af",
      "blockNumber": "0x1510506",
      "gasUsed": "0x1bbdf",
      "effectiveGasPrice": "0x1a3f7547",
      "from": "0x76db01fc4fc21dd20f37bdf17dbe2d53e14bf1a2",
      "to": "0x8fc0503b224c337de589a8df56e725d8609b03fd",
      "contractAddress": null
    },
    {
      "status": "0x1",
      "cumulativeGasUsed": "0x10792e1",
      "logs": [],
      "logsBloom": "0x00000000000000000000000000000000000000000000000000000000000000000000000000000000000000000000000000000000000000000000000000000000000000000000000000000000000000000000000000000000000000000000000000000000000000000000000000000000000000000000000000000000000000000000000000000000000000000000000000000000000000000000000000000000000000000000000000000000000000000000000000000000000000000000000000000000000000000000000000000000000000000000000000000000000000000000000000000000000000000000000000000000000000000000000000000000",
      "type": "0x2",
      "transactionHash": "0x1dbf50feffa587518109a5287ac86766b1f1708325a1a52a36873d69d6d2bbb1",
      "transactionIndex": "0x7f",
      "blockHash": "0x5798e98de0b4b942441a6b1db31fe0072ec5f257975509cda2472c883c28f5af",
      "blockNumber": "0x1510506",
      "gasUsed": "0x71f1",
      "effectiveGasPrice": "0x1a3f7547",
      "from": "0x76db01fc4fc21dd20f37bdf17dbe2d53e14bf1a2",
      "to": "0xd39cf17fcf9fd2e2dcce24fc06d61d496f1a9421",
      "contractAddress": null
    },
    {
      "status": "0x1",
      "cumulativeGasUsed": "0x107fb91",
      "logs": [],
      "logsBloom": "0x00000000000000000000000000000000000000000000000000000000000000000000000000000000000000000000000000000000000000000000000000000000000000000000000000000000000000000000000000000000000000000000000000000000000000000000000000000000000000000000000000000000000000000000000000000000000000000000000000000000000000000000000000000000000000000000000000000000000000000000000000000000000000000000000000000000000000000000000000000000000000000000000000000000000000000000000000000000000000000000000000000000000000000000000000000000",
      "type": "0x2",
      "transactionHash": "0xad31ebc7b02540395c2c8467916fbafd7df492a0d310434c6eda91045ca22884",
      "transactionIndex": "0x80",
      "blockHash": "0x5798e98de0b4b942441a6b1db31fe0072ec5f257975509cda2472c883c28f5af",
      "blockNumber": "0x1510506",
      "gasUsed": "0x68b0",
      "effectiveGasPrice": "0x1a3f7547",
      "from": "0x76db01fc4fc21dd20f37bdf17dbe2d53e14bf1a2",
      "to": "0xe75220cb014dfb2d354bb59be26d7458bb8d0706",
      "contractAddress": null
    },
    {
      "status": "0x1",
      "cumulativeGasUsed": "0x108b3b9",
      "logs": [],
      "logsBloom": "0x00000000000000000000000000000000000000000000000000000000000000000000000000000000000000000000000000000000000000000000000000000000000000000000000000000000000000000000000000000000000000000000000000000000000000000000000000000000000000000000000000000000000000000000000000000000000000000000000000000000000000000000000000000000000000000000000000000000000000000000000000000000000000000000000000000000000000000000000000000000000000000000000000000000000000000000000000000000000000000000000000000000000000000000000000000000",
      "type": "0x2",
      "transactionHash": "0x77b83c2d28b1e19a8aa62d53547e26874f4ae98bde26b7d668ab2af1143a13aa",
      "transactionIndex": "0x81",
      "blockHash": "0x5798e98de0b4b942441a6b1db31fe0072ec5f257975509cda2472c883c28f5af",
      "blockNumber": "0x1510506",
      "gasUsed": "0xb828",
      "effectiveGasPrice": "0x1a3f7547",
      "from": "0x76db01fc4fc21dd20f37bdf17dbe2d53e14bf1a2",
      "to": "0xe75220cb014dfb2d354bb59be26d7458bb8d0706",
      "contractAddress": null
    }
  ],
  "libraries": [
    "lib/stablecoin-evm/contracts/util/SignatureChecker.sol:SignatureChecker:0x70fB096D6BCd14Db76a4119d83b4fC8FacC7c9bB"
  ],
  "pending": [],
  "returns": {},
  "timestamp": 1742459825,
  "chain": 1,
  "commit": "2a90216"
}